:020000040800F2
:10000000000C0020D9170008710F0008730F0008BA
:1000100000000000000000000000000000000000E0
:10002000000000000000000000000000750F000844
:100030000000000000000000770F0008790F0008A2
:100040000000000000000000000000002918000867
:10005000291800082918000829180008291800087C
:100060000000000000000000000000000000000090
:10007000291800087D0F000829180008000000005A
:100080000000000029180008000000000000000027
:1000900000000000291800080000000039100008C6
:1000A00000000000291800080000000029180008BE
:1000B0000000000000000000000000000000000040
:1000C000002243088B4274D303098B425FD3030A97
:1000D0008B4244D3030B8B4228D3030C8B420DD3AA
:1000E000FF22090212BA030C8B4202D31212090238
:1000F00065D0030B8B4219D300E0090AC30B8B4276
:1001000001D3CB03C01A5241830B8B4201D38B0323
:10011000C01A5241430B8B4201D34B03C01A5241C8
:10012000030B8B4201D30B03C01A5241C30A8B420B
:1001300001D3CB02C01A5241830A8B4201D38B02F6
:10014000C01A5241430A8B4201D34B02C01A52419A
:10015000030A8B4201D30B02C01A5241CDD2C3090C
:100160008B4201D3CB01C01A524183098B4201D388
:100170008B01C01A524143098B4201D34B01C01A73
:10018000524103098B4201D30B01C01A5241C308EB
:100190008B4201D3CB00C01A524183088B4201D35A
:1001A0008B00C01A524143088B4201D34B00C01A46
:1001B0005241411A00D20146524110467047FFE7B2
:1001C00001B5002000F0F0F802BDC0460029F7D0CC
:1001D00076E7704703460B437FD4002243088B42E7
:1001E00074D303098B425FD3030A8B4244D3030BBE
:1001F0008B4228D3030C8B420DD3FF22090212BA83
:10020000030C8B4202D31212090265D0030B8B42FE
:1002100019D300E0090AC30B8B4201D3CB03C01AE8
:100220005241830B8B4201D38B03C01A5241430BC3
:100230008B4201D34B03C01A5241030B8B4201D3B3
:100240000B03C01A5241C30A8B4201D3CB02C01A1E
:100250005241830A8B4201D38B02C01A5241430A96
:100260008B4201D34B02C01A5241030A8B4201D385
:100270000B02C01A5241CDD2C3098B4201D3CB012C
:10028000C01A524183098B4201D38B01C01A5241DB
:1002900043098B4201D34B01C01A524103098B42DF
:1002A00001D30B01C01A5241C3088B4201D3CB00CA
:1002B000C01A524183088B4201D38B00C01A5241AD
:1002C00043088B4201D34B00C01A5241411A00D25D
:1002D00001465241104670475DE0CA0F00D04942C6
:1002E000031000D34042534000229C4603098B4236
:1002F0002DD3030A8B4212D3FC22890112BA030ABE
:100300008B420CD3890192118B4208D3890192113F
:100310008B4204D389013AD0921100E08909C309C4
:100320008B4201D3CB01C01A524183098B4201D3C6
:100330008B01C01A524143098B4201D34B01C01AB1
:10034000524103098B4201D30B01C01A5241C30829
:100350008B4201D3CB00C01A524183088B4201D398
:100360008B00C01A5241D9D243088B4201D34B00B3
:10037000C01A5241411A00D20146634652415B10F5
:10038000104601D34042002B00D5494270476346D6
:100390005B1000D3404201B5002000F005F802BD1B
:1003A0000029F8D016E770477047C04603B471467D
:1003B000490840004900095E49008E4403BC70476B
:1003C0000448054B10B5834203D0044B002B00D0EA
:1003D000984710BD3C0100203C01002000000000B7
:1003E00006480749091A8B10C90FC91810B54910DA
:1003F00003D0044B002B00D0984710BD3C010020D7
:100400003C0100200000000010B5074C2378002BB1
:1004100009D1FFF7D5FF054B002B02D0044800E0BF
:1004200000BF0123237010BD3C010020000000002C
:100430006C200008054B10B5002B03D0044905487B
:1004400000E000BFFFF7CCFF10BDC0460000000079
:10045000400100206C200008002310B50400036058
:100460004360836081814366C2810361436183612C
:10047000190008225C3000F0B3F80B4B2462636271
:100480000A4BA3620A4BE3620A4B23630A4B9C426A
:1004900005D00A4B9C4202D0094B9C4203D120005C
:1004A000583000F0C9F810BD0909000831090008EA
:1004B000690900089509000858010020C0010020C2
:1004C0002802002010B5034A0349044800F06CF8E4
:1004D00010BDC046C000002091080008D0000020D8
:1004E00041680B4B10B50400994201D000F0D0F9DF
:1004F000A168084B994202D0200000F0C9F9E168D8
:10050000054B994202D0200000F0C2F910BDC04650
:1005100058010020C00100202802002010B5094B1E
:10052000094A04211A6009480022FFF795FF0122B9
:1005300009210748FFF790FF022212210548FFF723
:100540008BFF10BD90020020C50400085801002058
:10055000C00100202802002010B5024800F06DF80C
:1005600010BDC0469502002010B5024800F066F8A4
:1005700010BDC0469502002010B50400FFF7ECFF47
:10058000236A002B02D0FFF7EFFF10BD044B23625C
:10059000044B1B68002BF6D1FFF7C0FFF3E7C04602
:1005A000E104000890020020F7B514000026009036
:1005B0000191A5686768013F04D52468002CF8D133
:1005C0003000FEBDAB89012B08D90E22AB5E013392
:1005D00004D029000098019B984706436835EAE754
:1005E00003008218934200D1704719700133F9E774
:1005F00070B500260C4C0D4D641BA410A64209D109
:10060000002601F033FD0A4C0A4D641BA410A642DB
:1006100005D170BDB300EB5898470136EEE7B30043
:10062000EB5898470136F2E72825000828250008EE
:100630002C250008282500087047704770470000E7
:1006400070B50F4E0D0031680400002902D100F092
:10065000CFF930602900200000F0CAF9431C03D113
:1006600001256D42280070BD0323C51C9D43A8428F
:10067000F8D0291A200000F0BBF90130F2D1EFE7E1
:1006800098020020F7B50322CB1C934308330500E2
:100690001F000C2B34D20C27B94233D8280000F0AD
:1006A00023F9374E33681C00002C2FD13900280065
:1006B000FFF7C6FF0400431C5FD134680094009B21
:1006C000002B4AD1002C52D023682800E31800994F
:1006D000019300F08DF9019B834248D123682800E3
:1006E000FF1A3900FFF7ACFF013040D02368DB1957
:1006F000236033685A68002A33D1009B336019E0C5
:10070000002BC9DA0C232B600020FEBD2168C91B19
:1007100020D40B290AD9E2192760A34204D1326000
:1007200063681160536005E05A60F9E76268A342AC
:100730000ED13260280000F0DFF8200007220B30D5
:10074000231D9043C21A9842DFD01B1AA350DCE746
:100750005A60EFE723006468A6E7009C6368009393
:10076000ADE71A005B68A342FBD10023DAE70C2354
:1007700028002B6000F0C0F8C6E70760DAE7C04643
:100780009C020020F7B50C228B5E05000C001A07B6
:1007900056D44A68002A02DC0A6C002A4EDDE76A59
:1007A000002F4BD0002280202E682A601A004001C2
:1007B000216A0240034233D0626DA3895B0706D5EC
:1007C0006368D21A636B002B01D0236CD21A00230A
:1007D0002800E76A216AB847A289431C06D1296824
:1007E0001D2946D8294BCB40DB0742D50023636047
:1007F00023692360D20405D5431C02D12B68002B4A
:1008000000D16065616B2E60002917D0230044334E
:10081000994202D0280000F023F9002363630DE021
:1008200001232800B8470200431CC6D12B68002BC7
:10083000C3D01D2B01D0162B1AD12E6000201EE034
:100840000E69002EFAD00F680E60BA1B01920022CA
:100850009B0700D14A69A260019B002BEEDDA36AD1
:1008600032001F002800019B216AB847002807DCDE
:10087000A2894023012013431BB2A3814042FEBD45
:10088000019B36181B1A0193E6E7C0460100402081
:100890000B6970B505000C00002B02D10025280063
:1008A00070BD002804D0036A002B01D1FFF764FE5D
:1008B0000C22A35E002BF1D0626ED20704D49B05FC
:1008C00002D4A06DFFF7B9FE28002100FFF75AFF00
:1008D000636E0500DB07E2D4A3899B05DFD4A06D1E
:1008E000FFF7ACFEDBE7000010B50248FFF7A5FEFE
:1008F00010BDC0469402002010B50248FFF79EFECE
:1009000010BDC0469402002070B50C000E25495F52
:1009100000F05AF8002803DB636D1B18636570BD97
:10092000A389024A1340A381F9E7C046FFEFFFFF06
:10093000F8B51F008B8905000C001600DB0505D5F6
:100940000E23C95E0022022300F02AF8A389054A7B
:1009500028001340A38132000E23E15E3B0000F02B
:1009600059F8F8BDFFEFFFFF70B50C000E25495F89
:1009700000F016F8A389421C03D1054A1340A38155
:1009800070BD802252011343A3816065F8E7C04621
:10099000FFEFFFFF10B50E23C95E00F04FF810BD4A
:1009A00070B50400080011001A000023054D2B60EB
:1009B00000F08BFE431C03D12B68002B00D023607A
:1009C00070BDC046A002002070B5040008001100F0
:1009D0001A000023054D2B6000F052FE431C03D18A
:1009E0002B68002B00D0236070BDC046A002002001
:1009F000002370B5064D040008002B6001F028FBB1
:100A0000431C03D12B68002B00D0236070BDC0466F
:100A1000A002002070B50400080011001A00002395
:100A2000054D2B6000F01EFE431C03D12B68002BEC
:100A300000D0236070BDC046A0020020002370B526
:100A4000064D040008002B6000F033FE431C03D168
:100A50002B68002B00D0236070BDC046A002002090
:100A600070B505000C1E10D0043C2368002B00DA82
:100A7000E4182800FFF738FF1D4A1368002B05D142
:100A8000636014602800FFF737FF70BDA34208D9E8
:100A9000206821188B42F3D119685B68091821601E
:100AA000EEE71A005B68002B01D0A342F9D9116868
:100AB0005018A0420BD120680918501811608342C9
:100AC000E0D118685B68411811605360DAE7A04212
:100AD00002D90C232B60D5E7206821188B4203D163
:100AE00019685B680918216063605460CAE7C046F2
:100AF0009C02002030B587B001AD142200212800EF
:100B0000FFF76EFD154B1A6C802109010A431A6428
:100B10001B6C0B400093009B2C23FF332B80104B4E
:100B20000393104C2900200000F050FC626C8023DD
:100B30001B0213436364E36801221343E3602368E9
:100B400013432360084B802292011A60C32189005D
:100B50005A58064802405A5007B030BD00100240B3
:100B6000E7030000002C014000E100E0FF00FFFF70
:100B700010B590B0182200210AA8FFF731FD2022FD
:100B8000002102A8FFF72CFD114B5A6B01242243D0
:100B90005A635B6B23400193019B02230A930B93DF
:100BA0000B330F93A0200AA9C00500F0BFFA602301
:100BB00002930394002306930893064B0593802128
:100BC00002AA4901044800F02BFC10B010BDC04639
:100BD00000100240E7030000002C014070B58CB00B
:100BE0001822002106A8FFF7FBFC2B4C626B202388
:100BF0001A436263626B13400193019BE36B802590
:100C0000AD032B43E363E36B2B400093009B234A2C
:100C100080231B041360C521890053581B021B0A43
:100C2000535003230693013B07930893012609962B
:100C30000A960A330B9306A9194800F077FAE36A7B
:100C40001D43E562E36A174A1340E362164B0293C1
:100C500000230393A03304938025ED000595134CE6
:100C600002A9200000F05EFC236833432360626821
:100C700080239B00134363606268C023DB0013433F
:100C8000636023688022934323602368084A1340EB
:100C90001D4325600CB070BD0010024000E100E073
:100CA00000140050FFFFDFFF801A060000540040D0
:100CB000FFFBFFFF10B5A023DB0540249C621968F1
:100CC0001D480140802252010A431A605A68A2431B
:100CD0005A6080229A611A6802401A6000208023BC
:100CE000DB00984206DAA023DB051B695B0601D412
:100CF0000130F4E7A023DB0519680F4C2140802266
:100D000052010A431A605A6840218A435A60996125
:100D100080229A621A6822401A6000238022D20040
:100D2000934206DAA022D2051269520601D5013398
:100D3000F4E7C01810BDC046FFCFFFFF30B583B049
:100D400000F0D8FCFFF7D6FEFFF712FF274A516BE1
:100D5000012319435163526B13400193019BA0235C
:100D6000DB051968224A11408022D2010A431A6029
:100D70005A6880218A435A60FFF730FF33E0FFF75B
:100D800099FF2D1801341D2CF9DD1A48290000F0B7
:100D9000B9FDFA23DB009D421BDD174B1B68002BBE
:100DA00006D1164C206801300A21FFF7F9FA2160BC
:100DB000114B64221A60124B1B68FA2252009342B4
:100DC0000FD0FA22520093420DDA0D4A013313601C
:100DD00009E0094B1B68002BEDDD074A013B13605E
:100DE000E9E700F013F900240025CCE700100240E9
:100DF000FF3FFFFF84200008AC020020A802002073
:100E000024010020044A11688B005B181801C01AE5
:100E10004A30106080B270472001002070B5494B05
:100E20001B68082B00D989E09B00474AD3589F468E
:100E3000464A1368591C1160D917090E5A18FF2326
:100E400013405B1A424A5B009A5A424B1A6470BDC7
:100E50003E4A1368591C1160D80FC0184010302149
:100E6000FFF79EFA3C4B4900CA5A3A4B1A64EEE728
:100E7000364B1868421C1A602A21FFF791FA374B4B
:100E80004900CA5A334B1A64E1E7FFF7BBFF282138
:100E9000FFF79CF98CB2324D286880000521FFF7DE
:100EA00099F9201828602B4B1864D0E7274B186855
:100EB000421C1A600621FFF78DF90C21FFF770FA2A
:100EC000284B4900CA5A234B1A64C0E71F4B1A68C3
:100ED000511C1960D1170F230B409B181911DB0F00
:100EE000C91801220A40D31A1F4A5B009A5A194BAB
:100EF0001A64ACE7154B1868421C1A602A21FFF7E8
:100F00004FFA1A4B4900CA5A124B1A649FE7114B09
:100F1000FA2252001A649AE70C4A1368591C1160AD
:100F2000DA1703201040C01880102A21FFF738FA82
:100F30000A4B4900CA5A074B1A6488E7054B00223E
:100F40001A6484E7A802002094200008A40200206C
:100F500060210008002C0140C42300080C21000877
:100F60001C0100206423000860230008B82000084A
:100F70007047FEE7704770477047000010B5074B99
:100F80001B69DB0709D5054BDB68DB0705D5034B80
:100F9000022252421A61FFF741FF10BD002C0140AE
:100FA00010B5154A137801214B40DBB21370002BAA
:100FB0000AD1124A9368FE218B435E390B4393603A
:100FC0000F4B104A1A6010BD0C4A9368FE218B43E8
:100FD0004E390B439360FFF715FF0B4CE071FFF7A1
:100FE00011FF2072FFF70EFF6072FFF70BFFE07337
:100FF000034B00221A60E6E7B102002000540040D3
:10100000240100207017000028010020064B002258
:101010001A70064A9368FE218B435E390B43936036
:10102000034B044A1A607047B1020020005400408C
:10103000240100207017000030B583B0344B5B6989
:101040009B0714D5324B5A690092009A9B69009312
:10105000009B304B00221A702D4B5B695B0504D559
:101060002B4A53692C490B40536103B030BD284BC8
:101070005B69DB060FD5264B5A690192019A1A6803
:1010800001210A431A601968234A11408022D200C4
:101090000A431A60E0E71E4B5B691B0630D51F4B05
:1010A0001B78002B13D01B490A78531CDBB20B7042
:1010B0000F2002401A498A5C154C2169FF25A9437B
:1010C0000A4322611842C7D1FFF76AFFC4E7154BF4
:1010D000186810490B785A1CD2B20A7007242340B2
:1010E0001900114BC0001B185B5C09480169FF2502
:1010F000A9430B4303611442AED1FFF751FFABE7A5
:10110000034B5B695B06A7D5014B1B69A4E7C0468F
:1011100000540040B0020020FFFBFFFFB10200209E
:1011200028010020A802002024240008F0B5002493
:1011300009E00E69C2683A405E433243C2604A68C1
:10114000022A22D001340A681300E34038D0012378
:10115000A34015001D401A42F4D04B689C4602681B
:101160002B006B435E00F618F743B24366465E43BE
:10117000324302604A68013A012ADAD88E688268EE
:101180003A405E4332438260D3E7FF2D0AD84E696E
:10119000026A6B436B431D01ED1AAA437343134369
:1011A0000362CFE74E69426A2D0A2B006B436B4303
:1011B0006B431D01ED1AAA43734313434362C1E716
:1011C0004B68013B012B01D90020F0BDC968436881
:1011D00093434A4313434360F6E7000070B5036A44
:1011E0000126B3430362036A456882697324A243FC
:1011F0000C681443022293430A691343B3434A68B9
:101200001343104A904202D00F4A904212D1082252
:1012100093434A6992001343042293438A689200DD
:1012200013430A4A2A408D692A43094D2A40CD6951
:101230006D00154345608461CA6842630362002003
:1012400070BDC046002C014000440140FFFEFFFF7E
:10125000FFFDFFFF70B5036A1026B3430362036A04
:1012600044688269174D2A400D682D022A432025C3
:10127000AB430D692D012B43B3434D682D012B4327
:10128000114DA84202D0114DA84213D18025AB4385
:101290004D69AD012B434025AB438D68AD012B4318
:1012A0000B4D25408C69A40025430A4C2540CC6990
:1012B000E4002C4344608261CA68826303620020B8
:1012C00070BDC046FF8CFFFF002C01400044014070
:1012D000FFFBFFFFFFF7FFFF70B5036A194E3340B6
:1012E0000362036A4468C2697325AA430D682A43EE
:1012F000154D2B400D692D022B4333404D682D02B7
:101300002B43124DA84202D0114DA84213D1114DCA
:101310001D404B699B021D430F4B1D408B689B0278
:101320002B430E4D25408C69240125430C4C254050
:10133000CC6964012C434460C261CA68C263036221
:10134000002070BDFFFEFFFFFFFDFFFF002C0140EE
:1013500000440140FFF7FFFFFFFBFFFFFFEFFFFF30
:10136000FFDFFFFF70B5036A124E33400362036A6A
:101370004468C269104D2A400D682D022A430F4D62
:101380002B400D692D032B4333404D682D032B4318
:101390000B4DA84202D00B4DA84204D10A4D254066
:1013A0008C69A4012C434460C261CA680264036270
:1013B000002070BDFFEFFFFFFF8CFFFFFFDFFFFF8F
:1013C000002C014000440140FFBFFFFF0368114AA9
:1013D000904203D0104A904208D103E07022934318
:1013E0004A6813430D4A1340CA68134303608B686D
:1013F000C3620B888362074B984202D0064B984227
:1014000001D10B7C03634369012213434361002034
:101410007047C046002C014000440140FFFCFFFF24
:1014200010B50B00110080225200934215D008D84D
:10143000012B0FD0102B02D1FFF70CFF0CE0012085
:101440000AE080225201934202D1FFF78BFF03E0B2
:10145000012001E0FFF7C2FE10BDFFF73DFFFBE7F3
:10146000F0B5C64600B504000E0015001F0028495F
:101470003000FEF725FE63683F2293430343636019
:10148000236A93439846234B9D421BD80130434621
:10149000034323621F4B9D4230D9002F1DD16900A9
:1014A00049193000FEF70CFE030523D080231B02F0
:1014B00003433B43E069184A10401843E06180BC95
:1014C000B846F0BD83001B181801C01A8000FA212D
:1014D0008900FEF7F5FD0130D9E7A90049198B0015
:1014E000C9183000FEF7ECFD030505D080231B0270
:1014F0000343DEE7094BDCE7084BDAE7690030001D
:10150000FEF7DEFD0300064A1042D3D10423D1E7E3
:1015100040420F00A08601000030FFFF0180000064
:10152000FC0F000070B584B004000D0003680126B4
:10153000B343036001A800F057F86B682A68039969
:101540002000FFF78DFFAB68A268FE218A4313439A
:10155000A360236833432360EB68226803490A4091
:1015600013432360002004B070BDC046FFFBFFFFA3
:1015700010B50A4B9A6838231340082B0CD0074C3F
:1015800063685B0B0722134005499B00585823688A
:10159000DB0A1A40D04010BD0248FCE700100240B0
:1015A0007424000800366E01054B9A68120A0F2356
:1015B0001340044A9B009A581F231340D840704799
:1015C00000100240B4240008054B9A68120B072350
:1015D0001340044A9B009A581F231340D840704779
:1015E000001002409424000810B50400FFF7C0FF6B
:1015F0002060FFF7D9FF6060FFF7E6FFA06010BD35
:1016000010B5FA218900FEF75BFD0138034B5860E5
:1016100000229A6005321A6010BDC04610E000E05A
:10162000014B18607047C04638010020FF2303407B
:10163000054A5360044B1B685B06FBD5024B4122F5
:1016400052421A607047C04600380140044B1B6884
:101650009B06FBD5024B5B68FF2018407047C046D5
:101660000038014070B51600002405E04D1C0878D4
:10167000FFF7DCFF01342900B442F7DB300070BD16
:1016800070B50C001600002504E0FFF7DFFF2070A6
:1016900001350134B542F8DB300070BD10B50228C9
:1016A00001D8012010BD00F04FF90923036000208C
:1016B000F8E710B5022801D8002010BD00F044F969
:1016C0000923036001204042F7E710B500F03CF920
:1016D000092303600120404210BD10B5022804D840
:1016E00080239B014B60002010BD00F02DF90923E1
:1016F0000360F8E710B51F490A6880235B001343B5
:101700000B601D4B1A68D204D20C80231B021343BA
:101710004A68120C120413434B6001E0012909D0FE
:10172000144B1A688023DB00110019401A42F5D0CF
:101730000121F3E70F4B9A6810490A409A609A68B2
:1017400007218A439A600B4B9B6838221A42FAD1D0
:101750000B4A136801218B431360064A93680949B9
:101760000B409360084C2000FFF75AFF2000FFF762
:1017700047FF10BD00100240100FFF1FFFF0FFFFDA
:1017800000200240FF8FFFFF00366E010D494B68BD
:101790001B0C1B040C4A1268134380229201134352
:1017A0004B60002306E0094A99008858084A88508F
:1017B0000133DBB22F2BF6D9064B802292059A60BB
:1017C0007047C04600100240040FFF1F00000008D1
:1017D0000000002000ED00E00D4885460D480E4950
:1017E0000E4A002302E0D458C4500433C4188C427B
:1017F000F9D30B4A0B4C002301E013600432A242E0
:10180000FBD3FFF7C3FFFEF7F3FEFFF797FAFEE700
:10181000000C0020C00000203C0100203025000802
:101820003C010020B8020020FEE7000070B50E0069
:101830001D000E23C95E140096B000290CDAB2898F
:101840008023110019401A4214D18023DB000020AC
:101850002960236016B070BD6A4600F07BF800284E
:10186000EDDBF02301991B021940044BC9184B42D0
:101870005941EAE700214023E9E7C04600E0FFFFC5
:10188000F0B502268B8905000C0085B0334207D0E5
:1018900023004733236023610123636105B0F0BD5A
:1018A00003AB02AAFFF7C2FF029F01903900280094
:1018B000FEF7E8FE002808D10C22A35E9A05EDD4BD
:1018C000032293431E43A681E2E78023A28920607E
:1018D0001343A381039B20616761002B0CD0280078
:1018E0000E23E15E00F01EF8002805D00323A28934
:1018F0009A43023B1343A381A389019A1343A38113
:10190000CCE700000FB407B5054904AB086804CB69
:101910008168019300F058F803B008BC04B0184780
:10192000CC000020002370B5064D040008002B6099
:10193000FFF7B4FE431C03D12B68002B00D02360BB
:1019400070BDC046A0020020014B18687047C04619
:10195000CC000020002370B5064D040008001100E3
:101960002B60FFF7BAFE431C03D12B68002B00D07D
:10197000236070BDA0020020936810B5013B936006
:10198000002B04DA9469A34207DB0A2905D0136807
:10199000581C10601970080010BD00F0ADFA01006D
:1019A000F9E7F8B506000F001400D518AC4201D1D4
:1019B000002007E021783A003000FFF7DDFF013416
:1019C000431CF3D1F8BD0000F0B5A1B00F00150025
:1019D0001E000390002804D0036A002B01D1FEF7FB
:1019E000CBFD7B6EDB0705D4BB899B0502D4B86DAC
:1019F000FEF723FEBB891B0702D53B69002B13D1E1
:101A00003900039800F0BAFA00280DD07B6EDB078E
:101A100003D50120404221B0F0BDBB899B05F8D41D
:101A2000B86DFEF70BFEF4E7002308AC63612033CA
:101A300063761033A37607962E003378002B01D0FF
:101A4000252B48D1731B0593AE420BD02A003900D9
:101A50000398FFF7A6FF013000D1AEE06369059A55
:101A60009B1863613378002B00D1A6E0012200238C
:101A70005242626004A954325218751C2360E3601C
:101A8000A3601370A365594B0522180029780593AC
:101A900000F0D2FA6E1C00281FD12268D30604D5AC
:101AA000532304A95B1820211970130704D553236D
:101AB00004A95B182B2119702B782A2B16D02E0025
:101AC00000210A20E3683278751C303A092A50D97F
:101AD000002911D117E00136AFE7059B2268C01A33
:101AE00001238340134335002360CCE7079B191D76
:101AF0001B680791002B01DB0B9304E05B42E36062
:101B000002231343236033782E2B0CD173782A2BB6
:101B100034D1079B02361A1D1B680792002B01DA8D
:101B200001235B420993324D03222800317800F0F3
:101B300083FA002806D04023401B834022680136E8
:101B400013432360317806222A48751C217600F061
:101B500073FA002840D0284B002B22D10722079B84
:101B600007339343083307936369049A9B186361AF
:101B700062E743432E0001219B18A4E700230A20BB
:101B80001900013663603278751C303A092A03D98E
:101B9000002BC8D00991C6E741432E0001238918C4
:101BA000F1E707AA009221003A00144B039800E0E5
:101BB00000BF0490049B0133D6D17B6EDB0705D4B4
:101BC000BB899B0502D4B86DFEF738FDBB895B0667
:101BD00000D51EE70D981EE707AA009221003A00E3
:101BE000064B039800F07CF8E3E7C046F4240008B5
:101BF000FA240008FE24000800000000A3190008D1
:101C0000F7B5160001938A680B690C0000909342A7
:101C100000DA13002200336043321278002A01D028
:101C20000133336023689B0602D533680233336087
:101C30002268062315001D401A4227D02300433393
:101C40001B785A1E93412268920630D422000199D3
:101C50000098089D4332A847013025D0062223680A
:101C600000251340042B05D13368E568ED1AEB43DA
:101C7000DB171D40A3682269934201DD9B1AED1812
:101C80000026B54220D1002010E00135E36832681B
:101C90009B1AAB42D2DD2200012301990098089FD4
:101CA0001932B8470130F0D101204042FEBD30204A
:101CB000E1184331087021005A1C45310978A218F7
:101CC000433202331170C1E72200012301990098C9
:101CD000089F1A32B8470130E6D00136D1E700003C
:101CE000F0B58BB006920A00433207930590039239
:101CF0000A7E0C00109B782A09D8622A0BD8002A89
:101D000000D1BAE07A490491582A00D18EE025002A
:101D100042352A7022E0100063381528F7D8FEF704
:101D200045FB16001F00F6FFF6FFF6FFF6FF1F004B
:101D3000F6FFF6FFF6FFF6FF9F0036007E00F6FF87
:101D4000F6FFB000F6FF3600F6FFF6FF8200250032
:101D50001A684235111D196013682B7001239EE02B
:101D600018680968021D0D060BD506681A60002E5A
:101D700003DA2D23039A764213705D4B0A270493EE
:101D800018E006681A604906F1D536B2EFE7086830
:101D9000196840C9050602D4400600D5B6B21960DC
:101DA000534B0A2704936F2A00D1023F23000022DD
:101DB00043331A706368A360002B06DB042122689A
:101DC000039D8A43226033430CD0039D30003900C9
:101DD000FEF7FCF9049B013D5B5C2B7033000600B1
:101DE0009F42F3D9082F09D12368DB0706D5626823
:101DF00023699A4202DC3023013D2B70039B5B1B5D
:101E00002361079B210000930598069B09AAFFF711
:101E1000F7FE013048D1012040420BB0F0BD202236
:101E200009680A4322607822324904912100453131
:101E30000A701968226840C9100602D4500600D5FD
:101E4000B6B21960D30702D5202313432360002EB6
:101E500001D01027AAE72022236893432360F8E7E4
:101E60001A680D68101D4969186013682E0601D59F
:101E7000196002E06D06FBD519800023039D2361E4
:101E8000BFE71A68111D19601568002128006268F3
:101E900000F0D2F8002801D0401B60606368236125
:101EA0000023039A1370ACE72A002369069905986A
:101EB000079DA8470130AED023689B0715D4099B26
:101EC000E0689842A9DA1800A7E7220001230699E2
:101ED0000598079E1932B04701309CD00135E36860
:101EE000099A9B1AAB42F0DCE9E70025F7E7C04608
:101EF0000525000816250008F8B506000D00140099
:101F0000002804D0036A002B01D1FEF735FBA3693A
:101F1000A360A3891B0702D52369002B09D12100E7
:101F2000300000F02BF8002803D001256D42280076
:101F3000F8BD23692068EFB2C01A6369EDB283422D
:101F400005DC21003000FEF7A3FC0028EDD1A368DA
:101F50000130013BA36023685A1C22601F70636933
:101F6000834204D0A389DB07E1D50A2DDFD121000C
:101F70003000FEF78DFC0028D9D0D6E72D4B70B588
:101F8000050018680C00002804D0036A002B01D15A
:101F9000FEF7F2FA0C22A35E1A0723D4DA0607D45E
:101FA00009222A60402201201343A38140423AE0E3
:101FB0005B0713D5616B002908D023004433994295
:101FC00002D02800FEF74CFD002363632422A3897E
:101FD0009343A38100236360236923600823A289BC
:101FE0001343A3812369002B0BD1A0218022A38955
:101FF000890092000B40934203D021002800FFF794
:102000003FFC0C22A35E01211A000A400B420BD0B8
:102010000022A26062695242A261002022698242CB
:1020200001D11A06BED470BD990700D46269A260BE
:10203000F3E7C046CC000020C9B28218904201D11B
:102040000020704703788B42FBD00130F6E7000098
:10205000044A03001068002802D0C31813607047B8
:102060000148FAE7B4020020B8020020F8B5C046E3
:10207000F8BC08BC9E467047F8B5C046F8BC08BC22
:042080009E467047C1
:1020840074616C6C793A202564200D0A000000000C
:10209400300E0008500E0008700E00088A0E00086A
:1020A400AC0E0008CC0E0008F40E00080E0F000859
:1020B400180F0008E703B603840352032003EE025B
:1020C400BC028A0258022602F401C20190015E0198
:1020D4002C01FA00C8009600640032000000E703F7
:1020E400B603840352032003EE02BC028A025802A0
:1020F4002602F401C20190015E012C01FA00C8001D
:102104009600640032000000000032006400960073
:10211400C800FA002C015E019001C201F4012602FC
:1021240058028A02BC02EE02200352038403B6035F
:10213400E703E703B603840352032003EE02BC0261
:102144008A0258022602F401C20190015E012C01A8
:10215400FA00C8009600640032000000F401000296
:102164000C021802240231023D02490255026102A6
:102174006D027902840290029C02A702B302BE029D
:10218400C902D402DF02EA02F402FF0209031303C4
:102194001D03270330033A0343034C0355035D0334
:1021A40066036E0376037D0385038C0393039A030E
:1021B400A003A603AC03B203B703BC03C103C60365
:1021C400CA03CE03D103D503D803DB03DD03E00345
:1021D400E203E303E503E603E603E703E703E703B8
:1021E400E603E603E503E303E203E003DD03DB03C5
:1021F400D803D503D103CE03CA03C603C103BC036A
:10220400B703B203AC03A603A0039A0393038C039E
:1022140085037D0376036E0366035D0355034C0358
:1022240043033A03300327031D0313030903FF0287
:10223400F402EA02DF02D402C902BE02B302A70218
:102244009C029002840279026D02610255024902E5
:102254003D023102240218020C020002F401E701DB
:10226400DB01CF01C301B601AA019E0192018601DF
:102274007A016E01630157014B01400134012901C8
:102284001E0113010801FD00F300E800DE00D40084
:10229400CA00C000B700AD00A4009B0092008A00F1
:1022A4008100790071006A0062005B0054004D00F7
:1022B400470041003B00350030002B002600210080
:1022C4001D001900160012000F000C000A00070080
:1022D40005000400020001000100000000000000ED
:1022E4000100010002000400050007000A000C00C0
:1022F4000F001200160019001D00210026002B00FB
:10230400300035003B00410047004D0054005B00A5
:1023140062006A007100790081008A0092009B00CB
:10232400A400AD00B700C000CA00D400DE00E8007D
:10233400F300FD00080113011E01290134014001CD
:102344004B01570163016E017A01860192019E01DE
:10235400AA01B601C301CF01DB01E701DE030000DE
:10236400DE030000DE030000DE03000000000000C6
:102374000000000000000000000000000000000059
:102384000000000000000000000000000000000049
:102394000000000000000000000000000000000039
:1023A4000000000000000000000000000000000029
:1023B4000000000000000000000000000000000019
:1023C400F401DE03BC02F4012C016400C8005802CD
:1023D400DE03BC02F40190012C01FA00C80096004F
:1023E4006400320000000000000000000000000053
:1023F40000000000000000000000000000000000D9
:1024040000000000000000000000000000000000C8
:1024140000000000000000000000000000000000B8
:102424005A53616E64616C73487964726120202030
:102434005363726F6F67652047726565642020205F
:102444004578747261446D67476C61737343616E60
:102454005265765368656C6C536176696E6754682F
:1024640053696D706C6966795370656C6C43686B05
:1024740000093D0000127A000024F4004086510156
:1024840000366E0100093D0000093D0000093D00D1
:102494000000000000000000000000000000000038
:1024A400010000000200000003000000040000001E
:1024B4000000000000000000000000000000000018
:1024C4000000000000000000000000000000000008
:1024D40001000000020000000300000004000000EE
:1024E40006000000070000000800000009000000CA
:1024F400232D302B2000686C4C00656667454647E9
:10250400003031323334353637383941424344456B
:1025140046003031323334353637383961626364DA
:0425240065660000E8
:04252800350400086E
:04252C000904000896
:10253000000000000300000058010020D00000202F
:102540000000000058010020C001002028020020E7
:10255000000000000000000000000000000000007B
:10256000000000000000000000000000000000006B
:10257000000000000000000000000000000000005B
:1025800000000000000000000000000064000000E7
:102590000D00000070170000092087045410065831
:0C25A0005858A080A080005800127A005B
:04000005080017D9FF
:00000001FF
