:020000040800F2
:10000000000C00201D0B0008590400085B040008C8
:1000100000000000000000000000000000000000E0
:100020000000000000000000000000005D04000867
:1000300000000000000000005F04000861040008E8
:100040000000000000000000000000006D0B000830
:100050006D0B00086D0B00086D0B00086D0B0008A0
:100060000000000000000000000000000000000090
:100070006D0B0008650400086D0B0008000000000F
:10008000000000006D0B00080000000000000000F0
:10009000000000006D0B000800000000890400084B
:1000A000000000006D0B0008000000006D0B000850
:1000B0000000000000000000000000000000000040
:1000C00010B5064C2378002B07D1054B002B02D02E
:1000D000044800E000BF0123237010BDC4000020CD
:1000E00000000000700B0008044B10B5002B03D07B
:1000F0000349044800E000BF10BDC04600000000F6
:10010000C8000020700B0008002243088B4274D303
:1001100003098B425FD3030A8B4244D3030B8B4208
:1001200028D3030C8B420DD3FF22090212BA030C11
:100130008B4202D31212090265D0030B8B4219D3F2
:1001400000E0090AC30B8B4201D3CB03C01A524112
:10015000830B8B4201D38B03C01A5241430B8B425A
:1001600001D34B03C01A5241030B8B4201D30B0343
:10017000C01A5241C30A8B4201D3CB02C01A52416A
:10018000830A8B4201D38B02C01A5241430A8B422D
:1001900001D34B02C01A5241030A8B4201D30B0216
:1001A000C01A5241CDD2C3098B4201D3CB01C01A30
:1001B000524183098B4201D38B01C01A524143093A
:1001C0008B4201D34B01C01A524103098B4201D328
:1001D0000B01C01A5241C3088B4201D3CB00C01A95
:1001E000524183088B4201D38B00C01A524143080D
:1001F0008B4201D34B00C01A5241411A00D2014632
:10020000524110467047FFE701B5002000F006F8A4
:1002100002BDC0460029F7D076E770477047C04658
:1002200070B500260C4D0D4C641BA410A64209D1DC
:10023000002600F09DFC0A4D0A4C641BA410A64247
:1002400005D170BDB300EB5898470136EEE7B30017
:10025000EB5898470136F2E7140E0008140E000818
:10026000140E0008180E000803008218934200D1F3
:10027000704719700133F9E730B587B001AD14222A
:1002800000212800FFF7F0FF154A116C80200001C3
:1002900001431164136C03400093009B2C23FF3334
:1002A0002B80104B0393104C2900200000F09CFA87
:1002B000626C80231B0213436364E26801210A43DA
:1002C000E26023680B432360084B802292011A608E
:1002D000C32189005A58064802405A5007B030BD21
:1002E00000100240E7030000002C014000E100E0A4
:1002F000FF00FFFF10B590B0182200210AA8FFF7F9
:10030000B3FF2022002102A8FFF7AEFF114B5A6B6A
:10031000012422435A635B6B23400193019B022318
:100320000A930B930B330F93A0200AA9C00500F08A
:100330000BF9602302930394002306930893064B62
:100340000593802102AA4901044800F079FA10B00F
:1003500010BDC04600100240E7030000002C014021
:1003600070B58CB01822002106A8FFF77DFF244C41
:10037000626B20231A436263626B13400193019BFB
:10038000E36B8025AD032B43E363E36B2B400093CA
:10039000009B1C4A80231B041360C521890053580D
:1003A0001B021B0A535003230693013B0793089338
:1003B000012609960A960A330B9306A9124800F003
:1003C000C3F8E36A1D43E562E36A104A1340E3623F
:1003D0000F4B029300230393503304938023DB00DD
:1003E00005930C4C02A9200000F04AFA236833431D
:1003F0002360626880239B00134363600CB070BD70
:100400000010024000E100E000140050FFFFDFFF99
:10041000801A06000054004010B500F015FBFFF7ED
:100420002BFFFFF767FFFFF79BFFFEE7074A136805
:1004300001331360D917090E5A18FF2313405B1AB2
:100440005B00034A9A5A034B1A647047E00000208D
:10045000880B0008002C01407047FEE7704770478A
:100460007047000010B5074B1B69DB0709D5054B2A
:10047000DB68DB0705D5034B022252421A61FFF706
:10048000D5FF10BD002C014082B02B4B5B699B0750
:1004900017D5294B5A690092009A9A690092009ADE
:1004A00059688022D2000A435A60244A0021117000
:1004B0009B695B0738D4204A5168C023DB000B439B
:1004C00053601D4B5B691B060DD51C4B1A78511CE4
:1004D0001970072313401A4AD35C17490A69FF2091
:1004E000824313430B61144B5B695B0601D4124BCF
:1004F0001B69114B5B695B0504D50F4A53691149B0
:100500000B4053610C4B5B69DB060BD50A4B5A68F9
:100510000C490A405A605A690192019A1A680121ED
:100520000A431A6002B07047034A5168C023DB00D7
:100530000B435360C5E7C04600540040E400002070
:10054000880D0008FFFBFFFFF0B500240AE0C26839
:1005500065462A400D695D432A43C2604A68022A03
:1005600022D001340A681300E34038D00123A340AD
:1005700016001E401A42F4D00568330073435F0032
:10058000FF18FA439446BD434F685F433D430560FF
:100590004A68551E012DDAD8826865462A408D6862
:1005A0005D432A438260D2E7FF2E0AD8026A734372
:1005B00073431D01ED1AAA434D696B431343036254
:1005C000CFE7426A330A1E005E435E4373431D0158
:1005D000ED1AAA434D696B4313434362C1E74B686D
:1005E000013B012B01D90020F0BDC968436893434A
:1005F0004A431A434260F6E770B5036A0122934307
:100600000362036A456884697326B4430E68344301
:100610000226B3430E69334393434A681343104A97
:10062000904202D00F4A904212D1082293434A6965
:1006300092001343042293438A68920013430A4AA8
:100640002A408D692A43094D2A40CD696D00154322
:1006500045608461CA6842630362002070BDC04681
:10066000002C014000440140FFFEFFFFFFFDFFFFA3
:1006700070B5036A1026B3430362036A4468826953
:10068000174D2A400D682D022A432025AB430D69E2
:100690002D012B43B3434D682D012B43114DA8422F
:1006A00002D0114DA84213D18025AB434D69AD0155
:1006B0002B434025AB438D68AD012B430B4D2C40A4
:1006C0008D69AD002C430A4D2C40CD69ED002C43C3
:1006D00044608261CA6882630362002070BDC046C4
:1006E000FF8CFFFF002C014000440140FFFBFFFF97
:1006F000FFF7FFFF70B5026A194E32400262036ACB
:100700004468C2697325AA430D682A43154D2B40DE
:100710000D692D022B4333404D682D022B43124DA2
:10072000A84202D0114DA84213D1114D2B404D6962
:10073000AD022B430F4D2B408D68AD022B430E4D68
:100740002C408D692D012C430C4D2C40CD696D0141
:100750002C434460C261CA68C2630362002070BD5A
:10076000FFFEFFFFFFFDFFFF002C014000440140A2
:10077000FFF7FFFFFFFBFFFFFFEFFFFFFFDFFFFFC5
:1007800070B5026A124E32400262036A4568C2695D
:10079000104C22400C68240222430F4C23400C6969
:1007A0002403234333404C68240323430B4CA042CF
:1007B00002D00B4CA04204D10A4C2C408D69AD01F3
:1007C00025434560C261CA6802640362002070BDAF
:1007D000FFEFFFFFFF8CFFFFFFDFFFFF002C01405B
:1007E00000440140FFBFFFFF0368124A90421CD043
:1007F000104A904202D0104A904203D10F4A13404F
:10080000CA68134303608B68C3620B888362094B19
:10081000984202D0084B984201D10B7C0363436994
:1008200001221343436100207047702293434A68BA
:100830001343DDE7002C014000440140FFFCFFFFB3
:1008400010B50B00110080225200934215D008D839
:10085000012B0FD0102B02D1FFF70AFF09E0012076
:1008600007E080225201934202D1FFF789FF00E0A6
:10087000012010BDFFF7C0FEFBE7FFF73BFFF8E7E5
:10088000F0B5CE46474680B585B004000D0003683C
:1008900001229343036001A800F0B4F8039B99463A
:1008A0002F686B68984633494846FFF72DFC63680C
:1008B0003F22934303436360266A96432E4B9F4235
:1008C00031D80130304320622B4B9F4248D94346F8
:1008D000002B33D17900C9194846FFF715FC0300F6
:1008E000020539D080200002184343460343180014
:1008F000E769224B1F400743E761A368FE22934349
:10090000AA681343A3602368012213432360EB68A2
:1009100022681B490A4013432360002005B0C0BC75
:10092000B946B046F0BD830018180301181A8000BC
:10093000FA218900FFF7E8FB0130C3E7B900C919C4
:100940008B00C9184846FFF7DFFB0300020505D0FE
:10095000802000021843C8E70A48C6E70948C4E7F0
:1009600079004846FFF7D0FB074B1842C0D104205E
:10097000BEE7C04640420F00A08601000030FFFFE6
:10098000FFFBFFFF01800000FC0F00000A4B9A688C
:1009900038231340082B0CD007494B685B0B072208
:1009A00013409B00054818580B68DB0A1A40D040DA
:1009B00070470348FCE7C04600100240F40D0008F1
:1009C00000366E01054B9A68120A0F2313409B00F4
:1009D000034A9A581F231340D84070470010024022
:1009E000940D0008054B9A68120B072313409B00D7
:1009F000034A9A581F231340D84070470010024002
:100A0000D40D000810B50400FFF7C0FF2060FFF709
:100A1000D9FF6060FFF7E6FFA06010BD10B5FA21B6
:100A20008900FFF771FB0138034B586000229A6080
:100A300005321A6010BDC04610E000E0014B18609E
:100A40007047C046C000002010B51B490A688023CB
:100A50005B0013430B60194B1B68DB04DA0C80232B
:100A60001B0213434A68120C120413434B60124BCF
:100A70001B685B05FBD5104B9A6811490A409A60C8
:100A80009A6807218A439A600B4B9B6838221A4266
:100A9000FAD10C4A136801218B431360064A93680C
:100AA00009490B409360094C2000FFF7C7FF200065
:100AB000FFF7B4FF10BDC04600100240100FFF1F2B
:100AC000FFF0FFFF00200240FF8FFFFF00366E01A6
:100AD0000D494B681B0C1B040C4A126813438022FF
:100AE000920113434B60002306E09A0008495058D6
:100AF000084950500133DBB22F2BF6D9064B802228
:100B000092059A607047C04600100240040FFF1F14
:100B1000000000080000002000ED00E00D488546C0
:100B20000D480E490E4A002302E0D458C450043345
:100B3000C4188C42F9D30B4A0B4C002301E013601C
:100B40000432A242FBD3FFF7C3FFFFF769FBFFF7B5
:100B500063FCFEE7000C0020C0000020C400002061
:100B60001C0E0008C4000020E8000020FEE7000082
:100B7000F8B5C046F8BC08BC9E467047F8B5C046FC
:080B8000F8BC08BC9E4670475A
:100B8800F40100020C021802240231023D0249025B
:100B9800550261026D027902840290029C02A7024A
:100BA800B302BE02C902D402DF02EA02F402FF0263
:100BB800090313031D03270330033A0343034C03BC
:100BC80055035D0366036E0376037D0385038C037B
:100BD80093039A03A003A603AC03B203B703BC03B1
:100BE800C103C603CA03CE03D103D503D803DB036D
:100BF800DD03E003E203E303E503E603E603E703BB
:100C0800E703E703E603E603E503E303E203E003A0
:100C1800DD03DB03D803D503D103CE03CA03C60320
:100C2800C103BC03B703B203AC03A603A0039A0332
:100C380093038C0385037D0376036E0366035D03CC
:100C480055034C0343033A03300327031D031303DF
:100C58000903FF02F402EA02DF02D402C902BE025B
:100C6800B302A7029C029002840279026D0261021B
:100C7800550249023D023102240218020C02000208
:100C8800F401E701DB01CF01C301B601AA019E010E
:100C9800920186017A016E01630157014B014001FF
:100CA800340129011E0113010801FD00F300E800C9
:100CB800DE00D400CA00C000B700AD00A4009B004D
:100CC80092008A008100790071006A0062005B006E
:100CD80054004D00470041003B00350030002B0018
:100CE800260021001D001900160012000F000C003C
:100CF8000A000700050004000200010001000000CE
:100D080000000000010001000200040005000700C7
:100D18000A000C000F001200160019001D00210027
:100D280026002B00300035003B00410047004D00F5
:100D380054005B0062006A007100790081008A003B
:100D480092009B00A400AD00B700C000CA00D40008
:100D5800DE00E800F300FD00080113011E0129016F
:100D6800340140014B01570163016E017A0186018C
:100D780092019E01AA01B601C301CF01DB01E7017F
:100D880050726F66506C756D000000000000000026
:100D9800000000000000000000000000000000004B
:100DA800000000000000000000000000010000003A
:100DB800020000000300000004000000060000001C
:100DC8000700000008000000090000000000000003
:100DD800000000000000000000000000010000000A
:100DE80002000000030000000400000000093D00AC
:100DF80000127A000024F4004086510100366E018A
:0C0E080000093D0000093D0000093D000C
:040E1400E9000008E9
:040E1800C10000080D
:040E1C0000127A0046
:0400000508000B1DC7
:00000001FF
