:020000040800F2
:10000000000C0020790F0008ED070008EF0700083A
:1000100000000000000000000000000000000000E0
:10002000000000000000000000000000F1070008D0
:100030000000000000000000F3070008F5070008BA
:10004000000000000000000000000000C90F0008D0
:10005000C90F0008C90F0008C90F0008C90F000820
:100060000000000000000000000000000000000090
:10007000C90F0008F9070008C90F000800000000B8
:1000800000000000C90F0008000000000000000090
:1000900000000000C90F0008000000001D08000853
:1000A00000000000C90F000800000000C90F000890
:1000B0000000000000000000000000000000000040
:1000C00010B5064C2378002B07D1054B002B02D02E
:1000D000044800E000BF0123237010BD2C01002064
:1000E00000000000A41F0008044B10B5002B03D033
:1000F0000349044800E000BF10BDC04600000000F6
:1001000030010020A41F0008002243088B4274D352
:1001100003098B425FD3030A8B4244D3030B8B4208
:1001200028D3030C8B420DD3FF22090212BA030C11
:100130008B4202D31212090265D0030B8B4219D3F2
:1001400000E0090AC30B8B4201D3CB03C01A524112
:10015000830B8B4201D38B03C01A5241430B8B425A
:1001600001D34B03C01A5241030B8B4201D30B0343
:10017000C01A5241C30A8B4201D3CB02C01A52416A
:10018000830A8B4201D38B02C01A5241430A8B422D
:1001900001D34B02C01A5241030A8B4201D30B0216
:1001A000C01A5241CDD2C3098B4201D3CB01C01A30
:1001B000524183098B4201D38B01C01A524143093A
:1001C0008B4201D34B01C01A524103098B4201D328
:1001D0000B01C01A5241C3088B4201D3CB00C01A95
:1001E000524183088B4201D38B00C01A524143080D
:1001F0008B4201D34B00C01A5241411A00D2014632
:10020000524110467047FFE701B5002000F0F0F8BA
:1002100002BDC0460029F7D076E7704703460B437E
:100220007FD4002243088B4274D303098B425FD3EF
:10023000030A8B4244D3030B8B4228D3030C8B421B
:100240000DD3FF22090212BA030C8B4202D3121201
:10025000090265D0030B8B4219D300E0090AC30BD6
:100260008B4201D3CB03C01A5241830B8B4201D383
:100270008B03C01A5241430B8B4201D34B03C01A6C
:100280005241030B8B4201D30B03C01A5241C30AE4
:100290008B4201D3CB02C01A5241830A8B4201D355
:1002A0008B02C01A5241430A8B4201D34B02C01A3F
:1002B0005241030A8B4201D30B02C01A5241CDD2E4
:1002C000C3098B4201D3CB01C01A524183098B422F
:1002D00001D38B01C01A524143098B4201D34B0118
:1002E000C01A524103098B4201D30B01C01A52417B
:1002F000C3088B4201D3CB00C01A524183088B4202
:1003000001D38B00C01A524143088B4201D34B00EA
:10031000C01A5241411A00D201465241104670475C
:100320005DE0CA0F00D04942031000D34042534061
:1003300000229C4603098B422DD3030A8B4212D321
:10034000FC22890112BA030A8B420CD38901921153
:100350008B4208D3890192118B4204D389013AD090
:10036000921100E08909C3098B4201D3CB01C01A65
:10037000524183098B4201D38B01C01A5241430978
:100380008B4201D34B01C01A524103098B4201D366
:100390000B01C01A5241C3088B4201D3CB00C01AD3
:1003A000524183088B4201D38B00C01A5241D9D2EB
:1003B00043088B4201D34B00C01A5241411A00D26C
:1003C0000146634652415B10104601D34042002B68
:1003D00000D54942704763465B1000D3404201B5E7
:1003E000002000F005F802BD0029F8D016E770479C
:1003F0007047C04603B47146490840004900095E91
:1004000049008E4403BC704770B500260C4D0D4C5E
:10041000641BA410A64209D1002601F0C3FD0A4DB9
:100420000A4C641BA410A64205D170BDB300EB5862
:1004300098470136EEE7B300EB5898470136F2E7EC
:100440007C2300087C2300087C230008802300080C
:1004500003008218934200D1704719700133F9E705
:1004600030B587B001AD142200212800FFF7F0FF5E
:10047000154A116C8020000101431164136C034084
:100480000093009B2C23FF332B80104B0393104CC5
:100490002900200000F072FB626C80231B021343D2
:1004A0006364E26801210A43E26023680B4323602E
:1004B000084B802292011A60C32189005A580648CD
:1004C00002405A5007B030BD00100240E703000060
:1004D000002C014000E100E0FF00FFFF10B590B0EC
:1004E000182200210AA8FFF7B3FF2022002102A84A
:1004F000FFF7AEFF114B5A6B012422435A635B6B2B
:1005000023400193019B02230A930B930B330F9318
:10051000A0200AA9C00500F0E1F96023029303942A
:10052000002306930893064B0593802102AA4901F4
:10053000044800F04FFB10B010BDC0460010024050
:10054000E7030000002C014070B58CB01822002198
:1005500006A8FFF77DFF244C626B20231A436263D9
:10056000626B13400193019BE36B8025AD032B432A
:10057000E363E36B2B400093009B1C4A80231B0426
:100580001360C521890053581B021B0A53500323D3
:100590000693013B07930893012609960A960A33AE
:1005A0000B9306A9124800F099F9E36A1D43E5622E
:1005B000E36A104A1340E3620F4B02930023039354
:1005C000503304938023DB0005930C4C02A92000D8
:1005D00000F020FB236833432360626880239B0084
:1005E000134363600CB070BD0010024000E100E0F6
:1005F00000140050FFFFDFFF801A06000054004087
:1006000030B5A023DB0540229A6218681D4C2040BB
:100610008021490101431960596891435960403272
:100620009A611A6822401A6000208023DB009842F9
:1006300006DAA023DB051B695B0601D40130F4E771
:10064000A023DB051C680F4D2C408021490121436C
:10065000196059684022914359609A6140329A6208
:100660001A682A401A6000238022D200934206DAD8
:10067000A022D2051269520601D50133F4E7C01851
:1006800030BDC046FFCFFFFF30B583B000F00AFC9D
:10069000FFF7E6FEFFF722FF1F4A516B01231943C4
:1006A0005163526B13400193019BA023DB051A6831
:1006B0001A4911408022D2010A431A605A688021E7
:1006C0008A435A60FFF740FF1BE0FFF799FF2D18A0
:1006D00001341D2CF9DD2900114800F07DFCFA23BE
:1006E000DB009D4210DD0F4B1B68002B06D10E4C2A
:1006F0002368581C0521FFF777FE2160094B64220F
:100700001A6000240025E4E7064B1B68002BF8DD87
:10071000013B044A1360F4E700100240FF3FFFFF73
:10072000C01F0008500100204C010020044A13683B
:100730009800C3181801C01A4A30106080B2704780
:100740002401002010B5234B1B68002B10D1224A36
:100750001368591C11605A00D117090E5218FF2353
:1007600013405B1A5B001D4A9A5A1D4B1A6410BD58
:10077000012B07D0022B15D0032B20D0184B0022C1
:100780001A64F4E7144A1368591C1160D80FC01892
:1007900040103021FFF728FE4900124BCA5A104B77
:1007A0001A64E4E70C4B1868421C1A601621FFF724
:1007B0001BFE49000C4BCA5A094B1A64D7E7FFF7D6
:1007C000B5FF96218900FFF725FD89B2C831044B9A
:1007D0001964CCE74C010020480100205C2000088F
:1007E000002C0140D01F0008302000087047FEE7B1
:1007F000704770477047000010B5074B1B69DB0757
:1008000009D5054BDB68DB0705D5034B02225242B5
:100810001A61FFF797FF10BD002C014082B02B4BEF
:100820005B699B0717D5294B5A690092009A9A6910
:100830000092009A59688022D2000A435A60244AE2
:10084000002111709B695B0738D4204A5168C0238E
:10085000DB000B4353601D4B5B691B060DD51C4B26
:100860001A78511C1970072313401A4AD35C174990
:100870000A69FF20824313430B61144B5B695B06DB
:1008800001D4124B1B69114B5B695B0504D50F4A00
:10089000536911490B4053610C4B5B69DB060BD567
:1008A0000A4B5A680C490A405A605A690192019AE7
:1008B0001A6801210A431A6002B07047034A51685E
:1008C000C023DB000B435360C5E7C0460054004023
:1008D000540100205C220008FFFBFFFFF0B500245C
:1008E0000AE0C26865462A400D695D432A43C2603A
:1008F0004A68022A22D001340A681300E34038D043
:100900000123A34016001E401A42F4D005683300AC
:1009100073435F00FF18FA439446BD434F685F433B
:100920003D4305604A68551E012DDAD88268654648
:100930002A408D685D432A438260D2E7FF2E0AD8A1
:10094000026A734373431D01ED1AAA434D696B4359
:1009500013430362CFE7426A330A1E005E435E43DD
:1009600073431D01ED1AAA434D696B431343436260
:10097000C1E74B68013B012B01D90020F0BDC968DC
:10098000436893434A431A434260F6E770B5036AEB
:10099000012293430362036A456884697326B44362
:1009A0000E6834430226B3430E69334393434A68C7
:1009B0001343104A904202D00F4A904212D10822AB
:1009C00093434A6992001343042293438A68920036
:1009D00013430A4A2A408D692A43094D2A40CD69AA
:1009E0006D00154345608461CA684263036200205C
:1009F00070BDC046002C014000440140FFFEFFFFD7
:100A0000FFFDFFFF70B5036A1026B3430362036A5C
:100A100044688269174D2A400D682D022A4320251B
:100A2000AB430D692D012B43B3434D682D012B437F
:100A3000114DA84202D0114DA84213D18025AB43DD
:100A40004D69AD012B434025AB438D68AD012B4370
:100A50000B4D2C408D69AD002C430A4D2C40CD69C7
:100A6000ED002C4344608261CA6882630362002007
:100A700070BDC046FF8CFFFF002C014000440140C8
:100A8000FFFBFFFFFFF7FFFF70B5026A194E324010
:100A90000262036A4468C2697325AA430D682A4347
:100AA000154D2B400D692D022B4333404D682D020F
:100AB0002B43124DA84202D0114DA84213D1114D23
:100AC0002B404D69AD022B430F4D2B408D68AD027D
:100AD0002B430E4D2C408D692D012C430C4D2C4089
:100AE000CD696D012C434460C261CA68C263036270
:100AF000002070BDFFFEFFFFFFFDFFFF002C014047
:100B000000440140FFF7FFFFFFFBFFFFFFEFFFFF88
:100B1000FFDFFFFF70B5026A124E32400262036AC5
:100B20004568C269104C22400C68240222430F4CD5
:100B300023400C692403234333404C68240323439C
:100B40000B4CA04202D00B4CA04204D10A4C2C40CA
:100B50008D69AD0125434560C261CA6802640362C4
:100B6000002070BDFFEFFFFFFF8CFFFFFFDFFFFFE7
:100B7000002C014000440140FFBFFFFF0368124A00
:100B800090421CD0104A904202D0104A904203D1A9
:100B90000F4A1340CA68134303608B68C3620B8813
:100BA0008362094B984202D0084B984201D10B7CDA
:100BB000036343690122134343610020704770229D
:100BC00093434A681343DDE7002C01400044014091
:100BD000FFFCFFFF10B50B00110080225200934272
:100BE00015D008D8012B0FD0102B02D1FFF70AFF28
:100BF00009E0012007E080225201934202D1FFF771
:100C000089FF00E0012010BDFFF7C0FEFBE7FFF702
:100C10003BFFF8E7F0B5CE46474680B585B0040007
:100C20000D00036801229343036001A800F0B4F8AB
:100C3000039B99462F686B68984633494846FFF7EF
:100C400063FA63683F22934303436360266A9643D3
:100C50002E4B9F4231D80130304320622B4B9F42B4
:100C600048D94346002B33D17900C9194846FFF7CC
:100C70004BFA0300020539D0802000021843434696
:100C800003431800E769224B1F400743E761A3684D
:100C9000FE229343AA681343A360236801221343EF
:100CA0002360EB6822681B490A401343236000203D
:100CB00005B0C0BCB946B046F0BD830018180301AA
:100CC000181A8000FA218900FFF71EFA0130C3E7E5
:100CD000B900C9198B00C9184846FFF715FA030077
:100CE000020505D0802000021843C8E70A48C6E77D
:100CF0000948C4E779004846FFF706FA074B18424F
:100D0000C0D10420BEE7C04640420F00A0860100CB
:100D10000030FFFFFFFBFFFF01800000FC0F000021
:100D20000A4B9A6838231340082B0CD007494B68AC
:100D30005B0B072213409B00054818580B68DB0A21
:100D40001A40D04070470348FCE7C04600100240FC
:100D5000C822000800366E01054B9A68120A0F235C
:100D600013409B00034A9A581F231340D8407047F2
:100D70000010024068220008054B9A68120B0723F6
:100D800013409B00034A9A581F231340D8407047D2
:100D900000100240A822000810B50400FFF7C0FFB1
:100DA0002060FFF7D9FF6060FFF7E6FFA06010BD8D
:100DB00010B5FA218900FFF7A7F90138034B5860F5
:100DC00000229A6005321A6010BDC04610E000E0B3
:100DD000014B18607047C04628010020FF230340E4
:100DE000054A5360044B1B685B06FBD5024B41224E
:100DF00052421A607047C04600380140044B1B68DD
:100E00009B06FBD5024B5B68FF2018407047C0462D
:100E10000038014070B51600002405E04D1C08782C
:100E2000FFF7DCFF01342900B442F7DB300070BD6E
:100E300070B50C001600002504E0FFF7DFFF2070FE
:100E400001350134B542F8DB300070BD10B5022821
:100E500001D8012010BD00F0B9F80923036000207B
:100E6000F8E710B5022801D8002010BD00F0AEF858
:100E70000923036001204042F7E710B500F0A6F80F
:100E8000092303600120404210BD10B5022804D898
:100E900080239B014B60002010BD00F097F80923D0
:100EA0000360F8E710B51B490A6880235B00134311
:100EB0000B60194B1B68DB04DA0C80231B02134305
:100EC0004A68120C120413434B60124B1B685B05FB
:100ED000FBD5104B9A6811490A409A609A6807211D
:100EE0008A439A600B4B9B6838221A42FAD10C4A0B
:100EF000136801218B431360064A936809490B402C
:100F00009360094C2000FFF763FF2000FFF750FFBC
:100F100010BDC04600100240100FFF1FFFF0FFFF82
:100F200000200240FF8FFFFF00366E010D494B6825
:100F30001B0C1B040C4A12681343802292011343BA
:100F40004B60002306E09A00084950580849505069
:100F50000133DBB22F2BF6D9064B802292059A6023
:100F60007047C04600100240040FFF1F0000000839
:100F70000000002000ED00E00D4885460D480E49B8
:100F80000E4A002302E0D458C4500433C4188C42E3
:100F9000F9D30B4A0B4C002301E013600432A24248
:100FA000FBD3FFF7C3FFFFF72FFAFFF76DFBFEE759
:100FB000000C0020C00000202C0100208423000829
:100FC0002C01002068010020FEE70000014B18689A
:100FD0007047C046C00000200FB40B4B13B51C680F
:100FE000002C05D0A369002B02D1200000F03CF9B1
:100FF00005AB2000049AA168019300F04FFB16BCDA
:1010000008BC04B01847C046C0000020F7B58B8963
:1010100005000C001A075FD44A68002A04DC0A6C39
:10102000002A01DC0020FEBDE76A002FFAD0002272
:1010300080212E682A601A0049010A400B4234D0F0
:10104000606DA3895B0706D56368C01A636B002BCC
:1010500001D0236CC01A0200216A00232800E76A2D
:10106000B847A189431C06D12B681D2B31D82C4AC7
:10107000DA40D3072DD50023636023692360CB04B6
:1010800005D5431C02D12B68002B00D16065616B34
:101090002E600029C6D023004433994202D0280094
:1010A00000F0F2F900206063BDE701232800216A07
:1010B000B847431CC5D12B68002BC2D01D2B01D0D3
:1010C000162B01D12E60ADE74023A2891343A381E3
:1010D000A9E740230B43FAE70F69002FA2D00A6863
:1010E0000F60D21B019200229B0700D14A69A260C7
:1010F000019B002B00DC95E73A002800019B216A48
:10110000A66AB047002806DC40230120A28940429D
:101110001343A38187E7019B3F181B1A0193E7E75D
:10112000010040200B6970B505000C00002B02D1B6
:101130000025280070BD002804D08369002B01D150
:1011400000F092F8144B9C421BD16C680C22A35EF9
:10115000002BEDD0626ED20704D49B0502D4A06DA3
:1011600000F023F928002100FFF750FF636E05000F
:10117000DB07DED4A3899B05DBD4A06D00F016F954
:10118000D7E7064B9C4201D1AC68DFE7044B9C4299
:10119000DCD1EC68DAE7C046082300082823000801
:1011A000E8220008002310B5040003604360836058
:1011B000818143661900C281036143618361082212
:1011C0005C30FFF745F9054B24626362044BA36270
:1011D000044BE362044B236310BDC046391C000876
:1011E000611C0008991C0008C51C000810B50249C4
:1011F00000F0BAF810BDC0462511000870B568258A
:101200004A1E55430E002900743100F0A9F9041E4E
:1012100008D000212A00016046600C30A0606832CE
:10122000FFF716F9200070BD10B5024800F0BDF8B8
:1012300010BDC0465601002010B5024800F0B6F8B7
:1012400010BDC0465601002010B5024800F0ADF8B0
:1012500010BDC0465701002010B5024800F0A6F8A6
:1012600010BDC0465701002013B50400FFF7ECFF86
:10127000A369002B02D0FFF7EFFF13BDA364E36463
:101280002365134B134A1B68A2620193A34201D149
:101290000123A361200000F01FF86060200000F02F
:1012A0001BF8A060200000F017F800220421E06085
:1012B0006068FFF777FF01220921A068FFF772FF3E
:1012C00002221221E068FFF76DFF0123A361D2E73C
:1012D000BC1F0008ED110008F8B50700FFF7A4FFD8
:1012E0001F4B1E68B369002B02D13000FFF7BCFF13
:1012F0004836B4687368013B04D53368002B22D0AC
:101300003668F6E70C22A55E002D1AD12000154B99
:101310005830E360656600F047F8FFF78DFF200066
:10132000082229002560A560656025616561A561C9
:101330005C30FFF78DF86563A563A564E564200064
:10134000F8BD6834D7E704213800FFF757FF041EC3
:101350003060D5D1FFF770FF0C233B60EFE7C0464C
:10136000BC1F00080100FFFFF7B5040006000027BE
:10137000019148346368A5680093009B013B00938A
:1013800004D52468002CF5D13800FEBDAB89012BB3
:1013900008D90E22AB5E013304D029003000019B36
:1013A000984707436835E8E7704770477047000083
:1013B00070B50E001D000E23C95E140096B0002902
:1013C00008DA0C22B35E00222A601B0611D48023A7
:1013D000DB000FE06A4600F06FFD0028F1DBF02330
:1013E00001991B021940054BC9184B42594129600C
:1013F000EDE740230020236016B070BD00E0FFFF42
:10140000F7B502268B8905000C00334206D0230075
:1014100047332360236101236361F7BD6A4601AB53
:10142000FFF7C6FF00990700280000F099F8002890
:1014300008D10C22A35E9A05EFD4032293431E43E6
:10144000A681E4E70F4BAB628023A289206013439F
:10145000A381009B20616361019B002B0DD02800BC
:101460000E23E15E00F03AFD002806D00322A38996
:1014700093431A0001231343A381A0890743A78143
:10148000CBE7C046ED11000870B50500002910D06B
:101490000C1F2368002B00DAE418280000F050FD30
:1014A0001D4A1368002B05D163601460280000F00A
:1014B0004FFD70BDA34208D9216860188342F3D163
:1014C00018685B6841182160EEE71A005B68002B22
:1014D00001D0A342F9D911685018A0420BD120685D
:1014E0000918501811608342E0D118685B684118F0
:1014F00011605360DAE7A04202D90C232B60D5E7D4
:1015000021686018834203D118685B684118216024
:1015100063605460CAE7C0465801002070B50F4EA2
:101520000D0031680400002902D100F073FB306027
:101530002900200000F06EFB431C0AD00323C51CC9
:101540009D43A84207D0291A200000F063FB431CEA
:1015500001D101256D42280070BDC0465C0100200C
:10156000F7B50322CB1C9343083306001F000C2B56
:1015700032D20C27B94231D8300000F0E1FC324DB4
:101580002B681C00002C2ED139003000FFF7C6FF5D
:101590000400431C1ED12C682500002D4AD123686D
:1015A0002900E3183000019300F034FB019B8342D3
:1015B00043D123680337FF1A03239F4308370C2FB7
:1015C00000D20C2739003000FFF7A8FF431C34D0AD
:1015D0002368DF19276013E0002BCBDA0C230025EA
:1015E00033602800FEBD2268D11B20D40B2917D9F7
:1015F000E2192760A34211D12A6063681160536029
:101600003000250000F0A4FC07220B35231D954374
:10161000EA1A9D42E5D05B1BA350E2E75A60ECE773
:101620006268A34201D12A60EAE75A60E8E7230032
:101630006468A7E72C006D68AFE70C2330003360C7
:1016400000F086FCCDE7C04658010020936810B535
:10165000013B9360002B04DA9469A34207DB0A295B
:1016600005D01368581C10601970080010BD00F0F8
:101670002FFB0100F9E7F8B506000F001400D5189C
:10168000AC4201D1002007E021783A003000FFF79A
:10169000DDFF0134431CF3D1F8BD0000F0B5A1B06B
:1016A00006000C001F000392002804D08369002B61
:1016B00001D1FFF7D9FD8E4B9C421CD17468636E3B
:1016C000DB0705D4A3899B0502D4A06DFFF76DFE4F
:1016D000A3891B0702D52369002B1DD121003000EF
:1016E00000F060FB002817D0636EDB070DD50120EA
:1016F000404221B0F0BD7F4B9C4201D1B468DEE78F
:101700007D4B9C42DBD1F468D9E7A3899B05EED4DD
:10171000A06DFFF74BFEEAE7002308AD6B612033B5
:101720006B761033AB760797039F3B78002B01D085
:10173000252B4ED1039BFB1A0593039B9F420DD093
:10174000059B21003000039AFFF795FF431C00D151
:10175000B5E06A69059B944663446B613B78002B56
:1017600000D1ACE001227B1C0393002352426A604B
:1017700004A9543252182B60EB60AB601370AB6558
:10178000039B052219785D4800F0CEFB039B5F1C8C
:10179000002820D12A68D30604D5532304A95B1856
:1017A00020211970130704D5532304A95B182B219A
:1017B0001970039B1B782A2B16D00021EB68039F1E
:1017C0003A78781C303A8446092A4FD9002911D139
:1017D00017E00137A9E7494B2A68C01A0123834063
:1017E00013432B600397CBE7079B191D1B680791D9
:1017F000002B01DB0B9304E05B42EB6002231343FD
:101800002B603B782E2B0AD17B782A2B37D1079B74
:1018100002371A1D1B680792002B2DDB0993032248
:101820003978374800F080FB002807D0344B2A680D
:10183000C01A40238340134301372B6039787B1C47
:10184000062230480393297600F06EFB002845D02D
:101850002D4B002B27D10722079B073393430833D7
:1018600007936B69049A9B186B615DE70A214B43F0
:1018700067469B180939A3E701235B42CEE70023A3
:101880001A0001376B603978781C30398446092991
:1018900003D9002BC3D00992C1E70A235A436746F4
:1018A0005218093BEFE707AB0093220029003000F4
:1018B000164B00E000BF0490049B0133D1D1636E4E
:1018C000DB0705D4A3899B0502D4A06DFFF76EFD4D
:1018D000A3895B0600D50AE70D980AE707AB0093DA
:1018E000220029003000094B00F082F8E3E7C046EF
:1018F0000823000828230008E822000848230008DD
:101900004E2300085223000800000000771600084C
:10191000F7B5150001938A680B690C00009093429B
:1019200000DA130022002B6043321278002A01D023
:1019300001332B6023689B0602D52B6802332B6092
:101940002268062317001F401A4227D02300433382
:101950001B785A1E93412268920630D422000199C6
:101960000098089E4332B047431C25D006232068C8
:101970002A68E16800250340042B03D18D1AEB434C
:10198000DB171D40A3682269934201DD9B1AED1805
:101990000027BD4220D1002010E00137E3682A680B
:1019A0009B1ABB42D2DD2200012301990098089EB8
:1019B0001932B047431CF0D101204042FEBD302017
:1019C000E1184331087021005A1C45310978A218EA
:1019D000433202331170C1E72200012301990098BC
:1019E000089E1A32B047431CE6D00137D1E7000009
:1019F000F0B58BB006920A0043320793059004922B
:101A00000A7E0C00109B782A07D8622A09D8002A7F
:101A100000D1C1E0582A00D18CE026004236327055
:101A200022E0100063381528F7D8FEF7E3FC160013
:101A30001F00F6FFF6FFF6FFF6FF1F00F6FFF6FFAA
:101A4000F6FFF6FFA80036009A00F6FFF6FFB90091
:101A5000F6FF3600F6FFF6FF9E0026001A684236B3
:101A6000111D1960136833700123A7E00868196815
:101A70000A1D05060BD50D681A60002D03DA2D230B
:101A8000049A6D421370614B0A2703931BE00D68A3
:101A90001A604106F1D52DB2EFE70D681968081DEF
:101AA00018602E0601D50D6803E06D06FBD50D68A4
:101AB000ADB2564B082703936F2A00D0023723009C
:101AC000002243331A706368A360002B03DB0422F7
:101AD000216891432160002D02D1049E002B0CD07F
:101AE000049E28003900FEF795FB039B013E5B5CDA
:101AF00033702B0005009F42F3D9082F09D12368CA
:101B0000DB0706D563682269934202DC3023013E7D
:101B10003370049B9B1B2361079B21000093059856
:101B2000069B09AAFFF7F4FE431C4CD1012040425A
:101B30000BB0F0BD45310A70344A03921A6821682F
:101B400020CA1A60080616D5CB0702D520231943F0
:101B500021601027002DB2D1202322689A432260F1
:101B6000ADE7202209680A4322602200782145322D
:101B70001170274AE1E74806E6D5ADB2E4E71A68F6
:101B80000D68101D4969186013682E0601D519608B
:101B900002E06D06FBD519800023049E2361BBE79C
:101BA0001A68111D1960166800213000626800F083
:101BB000BBF9002801D0801B6060636823610023AB
:101BC000049A1370A8E72369320006990598079DC7
:101BD000A847431CAAD023689B0715D4099BE0683B
:101BE0009842A5DA1800A3E7220001230699059878
:101BF000079E1932B047431C98D00135E368099A13
:101C00009B1AAB42F0DCE9E70025F7E7592300080F
:101C10006A230008002370B5064D040008002B60FD
:101C200000F0B2F9431C03D12B68002B00D02360D5
:101C300070BDC0466001002070B50C000E25495FE4
:101C400000F08EF9002803DB636D1B18636570BD1F
:101C5000A389024A1340A381F9E7C046FFEFFFFFC3
:101C6000F8B51F008B8905000C001600DB0505D5B3
:101C70000E23C95E0022022300F042F9A389054A1F
:101C800028001340A38132000E23E15E3B0000F0E8
:101C900075F8F8BDFFEFFFFF70B50C000E25495F2A
:101CA00000F02EF9A389421C03D1054A1340A381F9
:101CB00070BD802252011343A3816065F8E7C046DE
:101CC000FFEFFFFF10B50E23C95E00F0E3F810BD73
:101CD000F8B505000E001400002804D08369002B1D
:101CE00001D1FFF7C1FA224B9C422ED16C68A36947
:101CF000A360A3891B0732D52369002B2FD023684B
:101D00002269F7B2981A6369F6B2834205DC2100B2
:101D10002800FFF707FA002827D1A3680130013B0C
:101D2000A36023685A1C22601F706369834204D039
:101D3000A389DB0707D50A2E05D121002800FFF76C
:101D4000F1F9002811D13000F8BD0A4B9C4201D1B5
:101D5000AC68CCE7084B9C42C9D1EC68C7E72100CE
:101D6000280000F01FF80028C9D001267642EAE7D3
:101D70000823000828230008E822000870B50400A2
:101D8000080011001A000023054D2B60FFF742F8F0
:101D9000431C03D12B68002B00D0236070BDC046CC
:101DA00060010020374B70B51D6806000C00002D47
:101DB00005D0AB69002B02D12800FFF755FA324B52
:101DC0009C420FD16C680C23E25E93B211072DD4B4
:101DD000D90611D409230120336037331343A3817B
:101DE000404270BD294B9C4201D1AC68EBE7284BC7
:101DF0009C42E8D1EC68E6E75B0713D5616B0029EC
:101E000008D023004433994202D03000FFF73CFB56
:101E1000002363632422A3899343A3810023636087
:101E2000236923600823A2891343A3812369002B1C
:101E30000BD1A0218022A389890092000B409342FC
:101E400003D021003000FFF7DBFA0C22A35E012053
:101E50001A0099B2024003420FD00022A2606269C8
:101E60005242A261002022698242BAD10A06B8D544
:101E700040221343A3810138B3E7880700D4626985
:101E8000A260EFE7C0000020082300082823000814
:101E9000E8220008002370B5064D040008002B60FE
:101EA000FEF7DFFF431C03D12B68002B00D023601B
:101EB00070BDC04660010020002370B5064D0400CF
:101EC000080011002B60FEF7E0FF431C03D12B68D4
:101ED000002B00D0236070BD60010020002370B58E
:101EE000064D040008002B60FEF7B0FF431C03D131
:101EF0002B68002B00D0236070BDC046600100201D
:101F000070B50400080011001A000023054D2B6075
:101F1000FEF7B3FF431C03D12B68002B00D02360D6
:101F200070BDC04660010020C9B28218904201D144
:101F30000020704703788B42FBD00130F6E70000A9
:101F400010B50248FFF731FA10BDC0465501002018
:101F500010B50248FFF72AFA10BDC046550100200F
:101F600070B50400080011001A000023054D2B6015
:101F7000FEF75EFF431C03D12B68002B00D02360CB
:101F800070BDC04660010020044A030010680028AC
:101F900002D0C318136070470148FAE764010020BB
:101FA00068010020F8B5C046F8BC08BC9E467047E2
:0C1FB000F8B5C046F8BC08BC9E4670475F
:101FBC00C400002074616C6C793A202564200D0AF1
:101FCC0000000000F401DE0358022C016400000044
:101FDC000000F401DE03BC02F40190012C01FA00B4
:101FEC00C8009600640032000000000000000000F1
:101FFC0000000000000000000000000000000000D5
:10200C0000000000000000000000000000000000C4
:10201C0000000000000000000000000000000000B4
:10202C000000000000006400C8002C019001F401C5
:10203C005802BC0220038403E703E7038403200354
:10204C00BC025802F40190012C01C800640000008D
:10205C00F40100020C021802240231023D02490272
:10206C00550261026D027902840290029C02A70261
:10207C00B302BE02C902D402DF02EA02F402FF027A
:10208C00090313031D03270330033A0343034C03D3
:10209C0055035D0366036E0376037D0385038C0392
:1020AC0093039A03A003A603AC03B203B703BC03C8
:1020BC00C103C603CA03CE03D103D503D803DB0384
:1020CC00DD03E003E203E303E503E603E603E703D2
:1020DC00E703E703E603E603E503E303E203E003B8
:1020EC00DD03DB03D803D503D103CE03CA03C60338
:1020FC00C103BC03B703B203AC03A603A0039A034A
:10210C0093038C0385037D0376036E0366035D03E3
:10211C0055034C0343033A03300327031D031303F6
:10212C000903FF02F402EA02DF02D402C902BE0272
:10213C00B302A7029C029002840279026D02610232
:10214C00550249023D023102240218020C0200021F
:10215C00F401E701DB01CF01C301B601AA019E0125
:10216C00920186017A016E01630157014B01400116
:10217C00340129011E0113010801FD00F300E800E0
:10218C00DE00D400CA00C000B700AD00A4009B0064
:10219C0092008A008100790071006A0062005B0085
:1021AC0054004D00470041003B00350030002B002F
:1021BC00260021001D001900160012000F000C0053
:1021CC000A000700050004000200010001000000E5
:1021DC0000000000010001000200040005000700DF
:1021EC000A000C000F001200160019001D0021003F
:1021FC0026002B00300035003B00410047004D000D
:10220C0054005B0062006A007100790081008A0052
:10221C0092009B00A400AD00B700C000CA00D4001F
:10222C00DE00E800F300FD00080113011E01290186
:10223C00340140014B01570163016E017A018601A3
:10224C0092019E01AA01B601C301CF01DB01E70196
:10225C0050726F66506C756D00000000000000003D
:10226C000000000000000000000000000000000062
:10227C000000000000000000000000000100000051
:10228C000200000003000000040000000600000033
:10229C00070000000800000009000000000000001A
:1022AC000000000000000000000000000100000021
:1022BC0002000000030000000400000000093D00C3
:1022CC0000127A000024F4004086510100366E01A1
:1022DC0000093D0000093D0000093D000000000020
:1022EC0000000000000000000000000000000000E2
:1022FC0000000000000000000000000000000000D2
:10230C0000000000000000000000000000000000C1
:10231C0000000000000000000000000000000000B1
:10232C0000000000000000000000000000000000A1
:10233C00000000000000000000000000232D302BE6
:10234C002000686C4C0065666745464700303132AA
:10235C003334353637383941424344454600303101
:10236C003233343536373839616263646566000060
:04237C00E90000086C
:04238000C100000890
:10238400C4000020000000000823000828230008DF
:10239400E822000800000000000000000000000027
:1023A4000000000000000000000000000000000029
:1023B4000000000000000000000000000000000019
:1023C4000000000000000000000000000000000009
:1023D40000000000000000000000000000000000F9
:0C23E400000000000D00000000127A0054
:0400000508000F7967
:00000001FF
